:100000000C942A000C9497050C94C4050C94F105EB
:100010000C946D060C949A060C9447000C944700BF
:100020000C9447000C9447000C9447000C94470034
:100030000C9447000C9447000C9447000C94470024
:100040000C9447000C9447000C9447000C94470014
:100050000C94470011241FBECFE5D8E0DEBFCDBF12
:1000600010E0A0E6B0E0E2E1F1E102C005900D92FF
:10007000AE36B107D9F720E0AEE6B0E001C01D9280
:10008000A738B207E1F70E94D0000C9487080C94BF
:100090000000809161008B3448F420917100309110
:1000A0007200232B19F08B5F8093610081E391E054
:1000B0009093720080937100089580916100843262
:1000C00048F02091710030917200232B19F0855077
:1000D0008093610081E391E09093720080937100BE
:1000E000089580916000813071F483E690E00E9471
:1000F0003D0586E690E00E943D0580E40E942F06C3
:1001000010926000089583E690E00E945A0586E60A
:1001100090E00E945A0580E40E943B0681E08093B3
:10012000600080E00E94830240E061E080E00E9485
:10013000650340E061E081E00E94650340E063E028
:1001400081E00E94650340E060E081E00E94650379
:10015000089580916F0090917000009729F00197A9
:100160009093700080936F0080916200882319F053
:10017000815080936200809171009091720000978D
:1001800071F001979093720080937100892B39F47C
:100190006091610070E080E090E00E946804089542
:1001A000CF93DF93CDB7DEB72E970FB6F894DEBFAF
:1001B0000FBECDBF0E947F020E94800440E050E04D
:1001C00069E470E083E690E00E94770540E050E04B
:1001D0006DE570E086E690E00E94770540E050E033
:1001E00061E770E089E690E00E94770540E062E018
:1001F00083E00E94EB0240E063E083E00E94EB02B8
:1002000040E062E081E00E94EB0241E062E083E0D6
:100210000E94650341E063E083E00E94650341E0E2
:1002200062E081E00E94650341E061E080E00E94BD
:10023000EB0241E061E081E00E94EB0240E061E01E
:1002400080E00E94650340E061E081E00E94650378
:1002500041E060E081E00E94EB0241E063E081E088
:100260000E94EB0240E063E081E00E94650340E011
:1002700060E081E00E9465030E942B02CE0101969E
:100280000E942F020E941E060E94210640E050E0BC
:1002900069EA70E080E40E944806109272001092B1
:1002A0007100BE01635F7F4F80E090E00E947404A4
:1002B0008D858F3F11F08093610089818B838C83C2
:1002C0008D838E838F83888789878A878B878C87A6
:1002D00081E08093600083E690E00E945A0586E604
:1002E00090E00E945A0580E40E943B0680916000E5
:1002F0008130E1F38091710090917200892B29F097
:10030000809161000E94830203C089810E94830260
:1003100080916F0090917000892BF1F486E090E05D
:100320009093700080936F00CE0101960E942F027F
:1003300080916E008A3011F410926E0080916E00F0
:1003400091E0980F90936E00E3E0F0E0EC0FFD1F5A
:10035000E80FF11D898180832B818C8190E0820FD1
:10036000911D2D81820F911D2E81820F911D2F8154
:10037000820F911D2885820F911D2985820F911D65
:100380002A85820F911D2B85820F911D2C85820F4E
:10039000911D6AE070E00E94F7078B01AE01425F99
:1003A0005F4F60E081E00E942104AE01435F5F4F38
:1003B00061E080E00E9421048091610090E09C0156
:1003C000255031090217130798F48D85813031F1DA
:1003D00041E061E080E00E94650340E060E081E090
:1003E0000E94650340E063E081E00E94650316C05F
:1003F00005968017910790F48E85813079F040E062
:1004000061E080E00E94650341E060E081E00E94DD
:10041000650340E061E081E00E9465038091620035
:1004200081110BC09E85913041F48DE38093620071
:1004300063E081E00E94DF0359CF811157CF8D85A2
:10044000813009F053CF8DE38093620061E081E059
:100450000E94DF034BCF0E94A90280E008958F9293
:100460009F92AF92BF92CF92DF92EF92FF920F9343
:100470001F93CF93DF9300D0CDB7DEB7009779F10C
:100480004C010E94C002CE0101960E94C502498122
:100490005A810F2EFEEEAF2EF02D6894BB24B1F8DA
:1004A000C12CD12CE12CF12C00E010E0242F352FB1
:1004B00040E050E060E070E080E090E00E940B08D7
:1004C0000E94680720E030ED4FEB54E40E94C7061D
:1004D0000E943907F4017183608380E001C083E0EA
:1004E0000F900F90DF91CF911F910F91FF90EF90A0
:1004F000DF90CF90BF90AF909F908F9008958FEF37
:1005000084BB80E00895843610F59DEC899F212DF1
:100510001124269526952695299F912D112496958F
:1005200096959695990F392F330F330F930F422FCE
:10053000491B90E1499FA0011124220F922F990F8E
:10054000990F290F821B842B85BB80E0089581E0E1
:10055000089517B887B1806487B987B1806287B979
:1005600087B187B916B886B18F7D86B986B186B94D
:1005700086B1876086B986B1806886B980E00895C3
:1005800086B1806486B980E00895009711F1349BAC
:10059000FECF3D9B10C044B14295469546954370B1
:1005A00025B130E0220F331F220F331F242BFC0113
:1005B0003183208309C044B125B130E0322F222796
:1005C000242BFC013183208386B1806186B980E0D1
:1005D000089583E00895843008F06FC0683008F013
:1005E0006EC0423008F06DC08130F9F030F08230DA
:1005F000A1F1833009F449C066C02AB381E090E0DC
:10060000062E02C0880F991F0A94E2F78095822374
:100610008ABB2AB3842F90E002C0880F991F6A9585
:10062000E2F7822B8ABB80E0089587B321E030E0B7
:10063000062E02C0220F331F0A94E2F720952823CA
:1006400027BB27B3842F90E002C0880F991F6A95BB
:10065000E2F7822B87BB80E0089584B321E030E08D
:10066000062E02C0220F331F0A94E2F7209528239A
:1006700024BB24B3842F90E002C0880F991F6A9591
:10068000E2F7822B84BB80E0089581B321E030E063
:10069000062E02C0220F331F0A94E2F7209528236A
:1006A00021BB21B3842F90E002C0880F991F6A9567
:1006B000E2F7822B81BB80E0089582E0089582E01A
:1006C000089582E0089580E00895843008F06FC0B6
:1006D000683008F06EC0423008F06DC08130F9F02B
:1006E00030F08230A1F1833009F449C066C02BB3E9
:1006F00081E090E0062E02C0880F991F0A94E2F76D
:10070000809582238BBB2BB3842F90E002C0880F8F
:10071000991F6A95E2F7822B8BBB80E0089588B31E
:1007200021E030E0062E02C0220F331F0A94E2F7C8
:100730002095282328BB28B3842F90E002C0880F7F
:10074000991F6A95E2F7822B88BB80E0089585B3F4
:1007500021E030E0062E02C0220F331F0A94E2F798
:100760002095282325BB25B3842F90E002C0880F55
:10077000991F6A95E2F7822B85BB80E0089582B3CA
:1007800021E030E0062E02C0220F331F0A94E2F768
:100790002095282322BB22B3842F90E002C0880F2B
:1007A000991F6A95E2F7822B82BB80E0089582E070
:1007B000089582E0089582E0089580E008958430ED
:1007C000D0F56830D0F5813091F028F08230D9F042
:1007D000833029F134C02BB381E090E002C0880F50
:1007E000991F6A95E2F782278BBB80E0089528B3B2
:1007F00081E090E002C0880F991F6A95E2F7822796
:1008000088BB80E0089525B381E090E002C0880FA6
:10081000991F6A95E2F7822785BB80E0089522B38D
:1008200081E090E002C0880F991F6A95E2F7822765
:1008300082BB80E0089582E0089582E0089580E020
:10084000089541155105E1F18430E0F56830E0F597
:10085000813091F028F08230D9F0833029F136C010
:1008600089B390E002C0959587956A95E2F781700B
:10087000FA01808380E0089586B390E002C09595E8
:1008800087956A95E2F78170FA01808380E0089588
:1008900083B390E002C0959587956A95E2F78170E1
:1008A000FA01808380E0089580B390E002C09595BE
:1008B00087956A95E2F78170FA01808380E0089558
:1008C00083E0089582E0089582E0089580E008952D
:1008D000E199FECF9FBB8EBB6DBB8CB384608CBB9C
:1008E000E29AE19A80E00895E199FECF9FBB8EBB2A
:1008F0008CB381608CBB8DB3FB01808381E0089554
:1009000090E081E0A8C0292F30E0F901EE0FFF1F31
:10091000E20FF31FED59FF4F4081411137C045B73A
:100920004C7F45BFF901EE0FFF1FE20FF31FED599A
:10093000FF4F42814F3169F018F4473131F091C0D7
:10094000413471F0423649F08CC045B7416045BF33
:1009500007C045B7426045BF03C045B7436045BFC8
:10096000F901EE0FFF1F2E0F3F1FF901ED59FF4F49
:1009700021812F3221F42BB720642BBF6BC02C3583
:1009800009F071C02BB72F7B2BBF64C04130B1F58C
:1009900045B7437F45BFF901EE0FFF1FE20FF31F7D
:1009A000ED59FF4F42814F3169F018F4473131F072
:1009B0005CC0413471F0423649F057C045B74460DD
:1009C00045BF07C045B7486045BF03C045B74C6049
:1009D00045BFF901EE0FFF1F2E0F3F1FF901ED5923
:1009E000FF4F21812F3221F42BB720682BBF32C05B
:1009F0002C35E9F52BB72F772BBF2CC0423049F5AA
:100A0000F901EE0FFF1FE20FF31FED59FF4F428177
:100A10004F3119F0423629F02CC044B74F7B44BF08
:100A200003C044B7406444BFF901EE0FFF1F2E0F0F
:100A30003F1FF901ED59FF4F21812F3221F42BB7D0
:100A400020622BBF07C02C35B1F42BB72F7D2BBFF5
:100A500001C082E09F5F20916C00921708F453CF91
:100A6000089582E0089582E0089582E0089582E08A
:100A7000089582E0089582E008950097B9F0FC019E
:100A80008081811105C08BB780648BBF80E00895A1
:100A9000813029F48BB780688BBF80E00895823065
:100AA00039F48BB780628BBF80E0089583E00895AE
:100AB00082E008950097B9F0FC018081811105C0A2
:100AC0008BB78F7B8BBF80E00895813029F48BB783
:100AD0008F778BBF80E00895823039F48BB78F7D9C
:100AE0008BBF80E0089583E0089582E00895009729
:100AF000C1F061157105B9F0DC01EC91E330A8F4A7
:100B0000F0E0EE0FFF1FE758FF4F71836083EC9119
:100B1000F0E0EE0FFF1FED58FF4F5183408380E060
:100B2000089583E0089583E0089582E008951F9278
:100B30000F920FB60F9211242F933F934F935F9311
:100B40006F937F938F939F93AF93BF93EF93FF9395
:100B5000E0917900F0917A00309729F0809173004C
:100B6000909174000995FF91EF91BF91AF919F9182
:100B70008F917F916F915F914F913F912F910F9046
:100B80000FBE0F901F9018951F920F920FB60F92E5
:100B900011242F933F934F935F936F937F938F9382
:100BA0009F93AF93BF93EF93FF93E0917B00F091FE
:100BB0007C00309729F0809175009091760009951E
:100BC000FF91EF91BF91AF919F918F917F916F9125
:100BD0005F914F913F912F910F900FBE0F901F90FB
:100BE00018951F920F920FB60F9211242F933F93D7
:100BF0004F935F936F937F938F939F93AF93BF9325
:100C0000EF93FF93E0917D00F0917E00309729F003
:100C100080917700909178000995FF91EF91BF91B5
:100C2000AF919F918F917F916F915F914F913F9184
:100C30002F910F900FBE0F901F901895789480E021
:100C4000089515BC85B585BD85B5876085BD89B717
:100C50008F7389BF89B7806489BF80E00895282F8A
:100C600030E02F73232B29F499B7892B89BF80E0BB
:100C7000089582E00895282F30E02F73232B31F45C
:100C800099B78095892389BF80E0089581E0089510
:100C9000282F30E02F73232BD1F4803CD1F0611545
:100CA0007105C9F021E030E0803811F420E030E037
:100CB000C901880F991FFC01ED57FF4F71836083B5
:100CC000FC01E158FF4F5183408380E0089581E0AB
:100CD000089581E0089581E008951F920F920FB664
:100CE0000F9211242F933F934F935F936F937F93B2
:100CF0008F939F93AF93BF93EF93FF93E091830004
:100D0000F0918400309729F080917F0090918000CD
:100D10000995FF91EF91BF91AF919F918F917F9135
:100D20006F915F914F913F912F910F900FBE0F9058
:100D30001F9018951F920F920FB60F9211242F93A8
:100D40003F934F935F936F937F938F939F93AF9353
:100D5000BF93EF93FF93E0918500F0918600309769
:100D600029F080918100909182000995FF91EF9187
:100D7000BF91AF919F918F917F916F915F914F91B3
:100D80003F912F910F900FBE0F901F9018950E94CA
:100D9000DB060C94BD070E94B60758F00E94AF070F
:100DA00040F029F45F3F29F00C94A60751110C94F0
:100DB000F1070C94AC070E94CE0768F39923B1F3B6
:100DC000552391F3951B550BBB27AA276217730771
:100DD000840738F09F5F5F4F220F331F441FAA1F05
:100DE000A9F335D00E2E3AF0E0E832D091505040C1
:100DF000E695001CCAF72BD0FE2F29D0660F771F6F
:100E0000881FBB1F261737074807AB07B0E809F054
:100E1000BB0B802DBF01FF2793585F4F3AF09E3FD9
:100E2000510578F00C94A6070C94F1075F3FE4F3AA
:100E3000983ED4F3869577956795B795F7959F5F1C
:100E4000C9F7880F911D9695879597F90895E1E068
:100E5000660F771F881FBB1F621773078407BA07C7
:100E600020F0621B730B840BBA0BEE1F88F7E09522
:100E700008950E94D60788F09F5798F0B92F9927B8
:100E8000B751B0F0E1F0660F771F881F991F1AF075
:100E9000BA95C9F714C0B13091F00E94F007B1E0E3
:100EA00008950C94F007672F782F8827B85F39F0E2
:100EB000B93FCCF3869577956795B395D9F73EF40E
:100EC00090958095709561957F4F8F4F9F4F0895B6
:100ED000E894F92F96EBFF2381F0121613061406FF
:100EE000440B9395F6958795779567955795404070
:100EF000FF23B9F71BC099270895882351F4985010
:100F0000D2F7872B762F652F542F432F322F20E0D7
:100F1000B1F3121613061406440B88233AF09A957F
:100F2000440F551F661F771F881FCAF755234AF4C1
:100F3000440F551F11F460FF04C06F5F7F4F8F4F48
:100F40009F4F880F9695879597F9089597F99F6712
:100F500080E870E060E008959FEF80EC0895002441
:100F60000A941616170618060906089500240A940E
:100F700012161306140605060895092E0394000C94
:100F800011F4882352F0BB0F40F4BF2B11F460FF23
:100F900004C06F5F7F4F8F4F9F4F089557FD90584C
:100FA000440F551F59F05F3F71F04795880F97FB2D
:100FB000991F61F09F3F79F08795089512161306E7
:100FC0001406551FF2CF4695F1DF08C01616170616
:100FD0001806991FF1CF869571056105089408954B
:100FE000E894BB2766277727CB0197F9089597FBED
:100FF000072E16F4009407D077FD09D00E946408EC
:1010000007FC05D03EF4909581959F4F089570950B
:1010100061957F4F0895DF93CF931F930F939A9D10
:10102000F02D219FF00D8B9DF00D8A9DE02DF10D8F
:10103000039FF00D029FE00DF11D4E9DE00DF11D8F
:101040005E9DF00D4F9DF00D7F936F93BF92AF9219
:101050005F934F93D5010E9478088B01AC01D701B3
:101060000E947808EB01E80FF91FD6010E945B0887
:101070002F913F91D6010E947808C60FD71FE81F15
:10108000F91FAF91BF910E945B082F913F910E9481
:101090007808C60FD71FE81FF91FD6010E947808ED
:1010A000E60FF71F9801BE01CF0111240F911F9188
:1010B000CF91DF9108950E947808460F571FC81FEF
:1010C000D91F08F431960895AA1BBB1B51E107C034
:1010D000AA1FBB1FA617B70710F0A61BB70B881FC8
:1010E000991F5A95A9F780959095BC01CD01089557
:1010F000A29FB001B39FC001A39F700D811D112459
:10110000911DB29F700D811D1124911D0895F894B9
:02111000FFCF0F
:0E111200013C3D002F1F012F1F022F62030022
:00000001FF
